:100000001DC023C322C321C320C31FC31EC31DC3DE
:100010001CC31BC31AC319C318C3D8C216C315C344
:1000200014C313C312C311C310C300600083800044
:1000300083009B00064C009B00AD800011241FBE76
:10004000CFEDCDBFEAE2F0E040E017C0B591A59159
:1000500035912591059107FD0CC095918591EF0192
:10006000F92FE82F05900D92A217B307D9F7FE01DB
:1000700004C01D92A217B307E1F7EB33F40731F781
:08008000D7D200C0F894FFCFB5
:10008800CF93DF9380917E00883239F41092660016
:1000980081E080937D0010927E0030916000309363
:1000A8007F004AE0832F642FB3D2292F832F64E681
:1000B800AFD2892F642FACD2E82F832F90E068EE5F
:1000C80073E093D264E670E090D2A22FB0E0AA0F5A
:1000D800BB1FAD57BF4FAC91A0936500F0E0EE0F8A
:1000E800FF1FED57FF4FB081B0936400611105C049
:1000F80080919B008093610009C0FB01FF27EE0FF0
:10010800FF1FED57FF4F808180936100809166004B
:100118008F5F80936600853108F054C060919D0020
:1001280070919E0070937D0060937C0081E090E068
:1001380017C0209167002F5F209367009C012F5FF5
:100148003F4FF901EE0FFF1FE556FF4F40815181E8
:10015800880F991FFC01E556FF4F51834083C90161
:100168008B30910534F37093AE006093AD008091AD
:100178006700883209F463C040F4843131F18E316C
:1001880009F440C08A30F1F409C08C3309F492C0F4
:100198008E3609F4A2C08233A9F46FC0EBE9F0E00F
:1001A800138212828091610090E0958384838B2F63
:1001B80090E097838683B0E0B187A0878EE490E0D3
:1001C80093878287C0E0D0E024C1EBE9F0E080911A
:1001D800610090E0938382838B2F90E095838483E2
:1001E800B0E0B783A6838EE490E09187808713867A
:1001F80012861586148617861686118A108A138A1F
:10020800128AE0CFEBE9F0E08B2F90E093838283B2
:10021800B0E0B583A4838EE490E09783868311864B
:100228001086138612861586148617861686118AF6
:10023800108A8091610090E0938B828BC3CFEBE9A9
:10024800F0E08A2F90E0938382838EE490E0958398
:100258008483178216821186108613861286158665
:100268001486178616868091610090E0918B808BAA
:100278008B2F90E0938B828BA5CFEBE9F0E08EE497
:1002880090E09383828315821482178216821186E6
:10029800108613861286158614868091610090E078
:1002A800978786878B2F90E0918B808BB0E0B38BFC
:1002B800A28B88CFC1D0C2D180936000EBE9F0E077
:1002C8001382128215821482178216821186108672
:1002D800138612861586148675CFEBE9F0E0138233
:1002E80012828091610090E0958384838B2F90E047
:1002F80097838683B0E0B187A0878EE490E09387E8
:1003080082878AE0809367005DCFE0916200F09178
:100318006300EE0FFF1FE556FF4F808188BB8FEC0F
:1003280097E00197F1F700C000008091620090917A
:10033800630082309105C1F02CF4009751F00197C9
:1003480061F02AC084309105E9F0ACF0059709F115
:1003580023C082B38F6082BB1FC082B38F6082BB11
:1003680082B38B7F82BB18C082B38F6082BB82B39B
:100378008D7F82BB11C082B38F6082BB82B38E7FB8
:1003880082BB0AC082B38F6082BB82B3877F82BB85
:1003980003C082B38F6082BB2091620030916300FA
:1003A8002F5F3F4F30936300209362008091680075
:1003B800909169000196909369008093680009976D
:1003C80039F510926900109268002950310930936C
:1003D80063002093620030D031D180936000809117
:1003E80066008431A8F0EBE9F0E08091610090E0CC
:1003F800958384838091640090E0978386838091BD
:10040800650090E0918780878EE490E093878287EB
:100418002196CE3591E0D9070CF477CF80917D00F5
:10042800811107C089B7816089BF83B7856083BFA1
:0804380012BEDF91CF9108957F
:10044000CF9328D0813011F58CEC45D084E443D093
:100450008FEC97E00197F1F700C000001BD08CEC07
:100460003AD08EEB38D075D0C82F73D01092800060
:1004700006C06FD0909180009F5F90938000909114
:1004800080009730B0F38C2F90E002C080E090E0C5
:04049000CF9108956B
:1004940081B3806281BB87EE93E00197F1F700C0DE
:1004A400000081B38F7D81BB9DEA9A95F1F700002E
:1004B400859904C081E08093820002C0109282007A
:1004C40087EE93E00197F1F700C00000809182006D
:0204D400089589
:1004D600CF93DF93D82FC0E015C081E090E00C2EBB
:1004E60002C0880F991F0A94E2F72D2F30E02823C7
:1004F60039238217930719F481E03DD002C080E0CA
:0E0506003AD0CF5FC83048F3DF91CF9108950F
:1005140081B3806281BB25E02A95F1F7000081B3A5
:100524008F7D81BB82E28A95F1F700C080B380722F
:1005340090E095958795959587959595879595954B
:0E05440087959595879528E72A95F1F70895F4
:10055200CF93DF93C0E0D0E00AC0DBDF90E00C2E47
:1005620002C0880F991F0A94E2F7D82BCF5FC830D8
:0A057200A0F38D2FDF91CF910895C3
:10057C0091B3906291BB95E09A95F1F700008823B6
:10058C0019F081B38F7D81BB8DEA8A95F1F700005C
:08059C0081B38F7D81BB08953E
:1005A400AA1BBB1B51E107C0AA1FBB1FA617B70795
:1005B40010F0A61BB70B881F991F5A95A9F78095B1
:0805C4009095BC01CD010895E2
:1005CC001F920F920FB60F9211248F9380917E0081
:1005DC008F5F80937E0019BE13BE8F910F900FBE5C
:0605EC000F901F9018950E
:1005F20097FB072E16F4009406D077FD08D0D1DFC2
:1006020007FC05D03EF4909581959F4F0895709513
:0606120061957F4F089581
:10061800991B79E004C0991F961708F0961B881F4C
:080628007A95C9F78095089549
:1006300078948FEF87BB8FE481BB8091600090E05E
:0406400023DDFBCFEC
:06064400969587950895CC
:02064A00DACC08
:10064C007E0030006D00790033005B005F007000AD
:08065C007F007B004E0000004E
:00000001FF
