:100000001DC0A9C3A8C3A7C3A6C3A5C3A4C3A3C334
:10001000A2C3A1C3A0C39FC39EC370C39CC39BC301
:100020009AC399C398C397C396C3006000898000A0
:100030008900A100075800A100B3800011241FBE51
:10004000CFEDCDBFEAE2F0E040E017C0B591A59159
:1000500035912591059107FD0CC095918591EF0192
:10006000F92FE82F05900D92A217B307D9F7FE01DB
:1000700004C01D92A217B307E1F7EB33F40731F781
:0800800063D300C0F894FFCF28
:10008800CF93DF93809182008F30A9F4109265009E
:1000980081E080937F0010928200809167008F5FDB
:1000A8008093670010928000823028F081E080936E
:1000B800800010926700809165008F5F80936500D3
:1000C8008B3008F055C06091A3007091A400709324
:1000D8007F0060937E0081E090E017C02091660069
:1000E8002F5F209366009C012F5F3F4FF901EE0FB1
:1000F800FF1FEF55FF4F40815181880F991FFC0169
:10010800EF55FF4F51834083C9018B30910534F37C
:100118007093B4006093B300809166008E3109F447
:100128004BC028F48A3061F0843129F121C0823330
:1001380009F484C08E3609F412C18832C9F45DC04E
:100148008091830090E0E1EAF0E0938382839583D5
:1001580084838091680090E09783868380916A0009
:1001680090E0918780878091610090E093878287F3
:1001780020E030E065C1E1EAF0E08091830090E0A2
:10018800938382838091680090E095838483809133
:100198006A0090E0978386838091610090E0918760
:1001A8008087138612861586148617861686118A06
:1001B800108A138A128ADCCFE1EAF0E080916800A5
:1001C80090E09383828380916A0090E09583848392
:1001D8008091610090E0978386831186108613864C
:1001E80012861586148617861686118A108A8091BB
:1001F800830090E0938B828BBBCFE1EAF0E08091A3
:100208006A0090E0938382838091610090E09583F7
:1002180084831782168211861086138612861586A5
:100228001486178616868091830090E0918B808BC8
:100238008091680090E0938B828B9ACF80918000A8
:10024800811127C081E00FD180FF04C025E02093F1
:10025800840002C0109284009C01992314F42F5F3B
:100268003F4F359527953093640020936300EAE06B
:10027800F0E0C901BF0151D280938100C90164E651
:1002880070E04BD2BF0149D26093600084E0809354
:10029800830080918000813041F582E0E4D09C01A8
:1002A8009093640080936300CAE0D0E0BE0135D229
:1002B80080938400E4E6F0E0C901BF012ED2BE01BC
:1002C8002CD260938100C90168EE73E026D2BF0189
:1002D80024D260936000E0916B00F0E0EE0FFF1F06
:1002E800E757FF4F808180938300E0918400F0E01E
:1002F800EE0FFF1FE757FF4F408140936100E091E9
:100308008100F0E0EE0FFF1FE757FF4F8081806804
:1003180080936A00E0916000F0E0EE0FFF1FE7575E
:10032800FF4F208120936800E1EAF0E050E053831A
:1003380042831582148217821682118610861386CC
:100348001286158614864091830050E057874687A9
:1003580030E0318B208B90E0938B828B09CFE1EAE0
:10036800F0E0138212828091830090E09583848369
:100378008091680090E09783868380916A0090E07E
:10038800918780878091610090E0938782878AE0D7
:1003980080936600EDCEE0916200F0E0EE0FFF1F63
:1003A800EF55FF4F808188BB8BED95E00197F1F702
:1003B80000C00000809162008230B9F028F48823E0
:1003C80049F0813059F029C08430E9F0A8F085302F
:1003D80009F123C082B38F6082BB1FC082B38F60D4
:1003E80082BB82B38B7F82BB18C082B38F6082BB13
:1003F80082B38D7F82BB11C082B38F6082BB82B310
:100408008E7F82BB0AC082B38F6082BB82B3877F34
:1004180082BB03C082B38F6082BB909162009F5FF2
:1004280090936200809169008F5F809369008930A2
:1004380029F4109269009950909362002F5F3F4F02
:100448002E3591E039070CF4A6CF80917F008111F9
:1004580007C089B7816089BF83B7856083BF12BE33
:06046800DF91CF91089521
:10046E00EF92FF920F931F93CF93DF93182FA3D08A
:10047E00813009F06CC0812F74D08EEBBDD0FAD0D4
:10048E00082FE82EF12CF6D0C82FD0E094D08CECAB
:10049E00B3D084E4B1D08FEC97E00197F1F700C0B0
:1004AE000000113009F4E701123009F052C0CE01FC
:1004BE00887F9927892B59F1077029E030E0201B9E
:1004CE0031093093880020938700C295D295D07F52
:1004DE00DC27C07FDC27CF77DD27C7019295829579
:1004EE008F7089279F7089278C2B9D2B7C01EE0C9A
:1004FE00FF1CEE0CFF1C8E0D9F1D880F991FE9012E
:10050E00C81BD90BDB5F8AE080936B0022C09C2F47
:10051E0088278E299F2996958795969587959695E6
:10052E0087959C0136952795E901CC0FDD1FCC0FE1
:10053E00DD1F2C0F3D1F220F331F6AE070E0C3D06A
:10054E00E901C80FD91F8BE080936B0002C0C0E099
:10055E00D0E0CE01DF91CF911F910F91FF90EF90E0
:02056E000895EE
:10057000CF93C82F85E547D0C13081F480E143D0C7
:100580008EE441D08EEB3FD087E53DD082E03BD07A
:1005900088E039D080E037D087E135D0C23081F4AF
:1005A00088E231D084E42FD081ED2DD089EE2BD09C
:1005B00085E029D080E027D080E025D08BEC23D0C7
:0405C000CF9108953A
:1005C40081B3806281BB87EE93E00197F1F700C0AD
:1005D400000081B38F7D81BB9DEA9A95F1F70000FD
:1005E400859904C081E08093860002C01092860041
:1005F40087EE93E00197F1F700C000008091860038
:02060400089557
:10060600CF93DF93D82FC0E015C081E090E00C2E89
:1006160002C0880F991F0A94E2F72D2F30E0282395
:1006260039238217930719F481E03DD002C080E098
:0E0636003AD0CF5FC83048F3DF91CF910895DE
:1006440081B3806281BB25E02A95F1F7000081B374
:100654008F7D81BB82E28A95F1F700C080B38072FE
:1006640090E095958795959587959595879595951A
:0E06740087959595879528E72A95F1F70895C3
:10068200CF93DF93C0E0D0E00AC0DBDF90E00C2E16
:1006920002C0880F991F0A94E2F7D82BCF5FC830A7
:0A06A200A0F38D2FDF91CF91089592
:1006AC0091B3906291BB95E09A95F1F70000882385
:1006BC0019F081B38F7D81BB8DEA8A95F1F700002B
:0806CC0081B38F7D81BB08950D
:1006D400AA1BBB1B51E107C0AA1FBB1FA617B70764
:1006E40010F0A61BB70B881F991F5A95A9F7809580
:0806F4009095BC01CD010895B1
:1006FC001F920F920FB60F9211248F93809182004C
:10070C008F5F8093820019BE13BE8F910F900FBE26
:06071C000F901F901895DC
:1007220097FB072E16F4009406D077FD08D0D1DF90
:1007320007FC05D03EF4909581959F4F08957095E2
:0607420061957F4F089550
:0E07480078948FEF87BB8FE481BB9ADCFECFE5
:0207560054CC81
:100758007E0030006D00790033005B005F007000A0
:080768007F007B00010000008E
:00000001FF
